{
  "contractName": "ConsumerRole",
  "abi": [
    {
      "anonymous": false,
      "inputs": [
        {
          "indexed": true,
          "internalType": "address",
          "name": "account",
          "type": "address"
        }
      ],
      "name": "ConsumerAdded",
      "type": "event"
    },
    {
      "anonymous": false,
      "inputs": [
        {
          "indexed": true,
          "internalType": "address",
          "name": "account",
          "type": "address"
        }
      ],
      "name": "ConsumerRemoved",
      "type": "event"
    },
    {
      "constant": true,
      "inputs": [],
      "name": "isConsumer",
      "outputs": [
        {
          "internalType": "bool",
          "name": "",
          "type": "bool"
        }
      ],
      "payable": false,
      "stateMutability": "view",
      "type": "function"
    },
    {
      "constant": false,
      "inputs": [],
      "name": "addConsumer",
      "outputs": [],
      "payable": false,
      "stateMutability": "nonpayable",
      "type": "function"
    },
    {
      "constant": false,
      "inputs": [],
      "name": "renounceConsumer",
      "outputs": [],
      "payable": false,
      "stateMutability": "nonpayable",
      "type": "function"
    }
  ],
  "bytecode": "0x608060405234801561001057600080fd5b50610455806100206000396000f3fe608060405234801561001057600080fd5b50600436106100415760003560e01c806361e6982d14610046578063702d372e146100505780637e4aa3c614610072575b600080fd5b61004e61007c565b005b610058610087565b604051808215151515815260200191505060405180910390f35b61007a6100a2565b005b6100853361010d565b565b600061009d33600061016790919063ffffffff16565b905090565b6100aa610087565b156100b457600080fd5b6100c833600061024590919063ffffffff16565b3373ffffffffffffffffffffffffffffffffffffffff167f28b26e7a3d20aedbc5f8f2ebf7da671c0491723a2b78f47a097b0e46dee0714260405160405180910390a2565b61012181600061032090919063ffffffff16565b8073ffffffffffffffffffffffffffffffffffffffff167fe3f5ed5f263f1f01764a96edfc7d025f511ec5f7d180e8816908b78bcf74f09860405160405180910390a250565b60008073ffffffffffffffffffffffffffffffffffffffff168273ffffffffffffffffffffffffffffffffffffffff1614156101ee576040517f08c379a00000000000000000000000000000000000000000000000000000000081526004018080602001828103825260228152602001806103ff6022913960400191505060405180910390fd5b8260000160008373ffffffffffffffffffffffffffffffffffffffff1673ffffffffffffffffffffffffffffffffffffffff16815260200190815260200160002060009054906101000a900460ff16905092915050565b61024f8282610167565b156102c2576040517f08c379a000000000000000000000000000000000000000000000000000000000815260040180806020018281038252601f8152602001807f526f6c65733a206163636f756e7420616c72656164792068617320726f6c650081525060200191505060405180910390fd5b60018260000160008373ffffffffffffffffffffffffffffffffffffffff1673ffffffffffffffffffffffffffffffffffffffff16815260200190815260200160002060006101000a81548160ff0219169083151502179055505050565b61032a8282610167565b61037f576040517f08c379a00000000000000000000000000000000000000000000000000000000081526004018080602001828103825260218152602001806103de6021913960400191505060405180910390fd5b60008260000160008373ffffffffffffffffffffffffffffffffffffffff1673ffffffffffffffffffffffffffffffffffffffff16815260200190815260200160002060006101000a81548160ff021916908315150217905550505056fe526f6c65733a206163636f756e7420646f6573206e6f74206861766520726f6c65526f6c65733a206163636f756e7420697320746865207a65726f2061646472657373a265627a7a7231582046ad3e64d92609e1241e0abbb835d3a9fe204188603179e45279ba9cb06d1c4464736f6c63430005100032",
  "source": "pragma solidity ^0.5.0;\nimport \"node_modules/@openzeppelin/contracts/access/Roles.sol\";\n  \n\ncontract ConsumerRole{\n    using Roles for Roles.Role;\n\n\n    event ConsumerAdded(address indexed account);\n  event ConsumerRemoved(address indexed account);\n\n    Roles.Role private Consumers;\n\n    modifier onlyConsumer() {\n    require(isConsumer());\n    _;\n  }\n  modifier notConsumer() {\n    require(!isConsumer());\n    _;\n  }\n\n\n  function isConsumer() public view returns (bool) {\n    return Consumers.has(msg.sender);\n  }\n\n  function addConsumer() public notConsumer {\n    Consumers.add(msg.sender);\n    emit ConsumerAdded(msg.sender);\n  }\n    function renounceConsumer() public {\n    _removeConsumer(msg.sender);\n  }\n   function _removeConsumer(address account) internal {\n    Consumers.remove(account);\n    emit ConsumerRemoved(account);\n  }\n}",
  "sourcePath": "/home/zero/myprojects/farmers-market/src/contracts/ConsumerRole.sol",
  "compiler": {
    "name": "solc",
    "version": "0.5.16+commit.9c3226ce.Emscripten.clang"
  },
  "schemaVersion": "3.3.0",
  "updatedAt": "2020-12-02T08:17:50.493Z",
  "devdoc": {
    "methods": {}
  },
  "userdoc": {
    "methods": {}
  }
}