{
  "contractName": "DistributorRole",
  "abi": [
    {
      "anonymous": false,
      "inputs": [
        {
          "indexed": true,
          "internalType": "address",
          "name": "account",
          "type": "address"
        }
      ],
      "name": "DistributorAdded",
      "type": "event"
    },
    {
      "anonymous": false,
      "inputs": [
        {
          "indexed": true,
          "internalType": "address",
          "name": "account",
          "type": "address"
        }
      ],
      "name": "DistributorRemoved",
      "type": "event"
    },
    {
      "constant": true,
      "inputs": [],
      "name": "isDistributor",
      "outputs": [
        {
          "internalType": "bool",
          "name": "",
          "type": "bool"
        }
      ],
      "payable": false,
      "stateMutability": "view",
      "type": "function"
    },
    {
      "constant": false,
      "inputs": [],
      "name": "addDistributor",
      "outputs": [],
      "payable": false,
      "stateMutability": "nonpayable",
      "type": "function"
    },
    {
      "constant": false,
      "inputs": [],
      "name": "renounceDistributor",
      "outputs": [],
      "payable": false,
      "stateMutability": "nonpayable",
      "type": "function"
    }
  ],
  "bytecode": "0x608060405234801561001057600080fd5b50610455806100206000396000f3fe608060405234801561001057600080fd5b50600436106100415760003560e01c80630997a51414610046578063644241db14610068578063ac52480e14610072575b600080fd5b61004e61007c565b604051808215151515815260200191505060405180910390f35b610070610097565b005b61007a6100a2565b005b600061009233600061010d90919063ffffffff16565b905090565b6100a0336101eb565b565b6100aa61007c565b156100b457600080fd5b6100c833600061024590919063ffffffff16565b3373ffffffffffffffffffffffffffffffffffffffff167fddbf200aa634dc3fb81cfd68583dd1040d1c751d335e1d86b631bde3e977fea860405160405180910390a2565b60008073ffffffffffffffffffffffffffffffffffffffff168273ffffffffffffffffffffffffffffffffffffffff161415610194576040517f08c379a00000000000000000000000000000000000000000000000000000000081526004018080602001828103825260228152602001806103ff6022913960400191505060405180910390fd5b8260000160008373ffffffffffffffffffffffffffffffffffffffff1673ffffffffffffffffffffffffffffffffffffffff16815260200190815260200160002060009054906101000a900460ff16905092915050565b6101ff81600061032090919063ffffffff16565b8073ffffffffffffffffffffffffffffffffffffffff167f126174f6cf49c81cdb4a9214c6b8f037bef55b4ec31e4fc776cea2a1c8a88d5960405160405180910390a250565b61024f828261010d565b156102c2576040517f08c379a000000000000000000000000000000000000000000000000000000000815260040180806020018281038252601f8152602001807f526f6c65733a206163636f756e7420616c72656164792068617320726f6c650081525060200191505060405180910390fd5b60018260000160008373ffffffffffffffffffffffffffffffffffffffff1673ffffffffffffffffffffffffffffffffffffffff16815260200190815260200160002060006101000a81548160ff0219169083151502179055505050565b61032a828261010d565b61037f576040517f08c379a00000000000000000000000000000000000000000000000000000000081526004018080602001828103825260218152602001806103de6021913960400191505060405180910390fd5b60008260000160008373ffffffffffffffffffffffffffffffffffffffff1673ffffffffffffffffffffffffffffffffffffffff16815260200190815260200160002060006101000a81548160ff021916908315150217905550505056fe526f6c65733a206163636f756e7420646f6573206e6f74206861766520726f6c65526f6c65733a206163636f756e7420697320746865207a65726f2061646472657373a265627a7a72315820c80a655673a6bb4c956cec3fae2c37f29ee64ee2bb83a88900784f96ae26986e64736f6c63430005100032",
  "source": "pragma solidity ^0.5.0;\nimport \"node_modules/@openzeppelin/contracts/access/Roles.sol\";\n        \n\ncontract DistributorRole{\n    using Roles for Roles.Role;\n\n\n    event DistributorAdded(address indexed account);\n  event DistributorRemoved(address indexed account);\n\n    Roles.Role private Distributors;\n\n    modifier onlyDistributor() {\n    require(isDistributor());\n    _;\n  }\n  modifier notDistributor() {\n    require(!isDistributor());\n    _;\n  }\n\n\n  function isDistributor() public view returns (bool) {\n    return Distributors.has(msg.sender);\n  }\n\n  function addDistributor() public notDistributor {\n    Distributors.add(msg.sender);\n    emit DistributorAdded(msg.sender);\n  }\n    function renounceDistributor() public {\n    _removeDistributor(msg.sender);\n  }\n   function _removeDistributor(address account) internal {\n    Distributors.remove(account);\n    emit DistributorRemoved(account);\n  }\n}",
  "sourcePath": "/home/zero/myprojects/famers market/src/contracts/DistributorRole.sol",
  "compiler": {
    "name": "solc",
    "version": "0.5.16+commit.9c3226ce.Emscripten.clang"
  },
  "schemaVersion": "3.3.0",
  "updatedAt": "2020-12-02T12:35:36.587Z",
  "devdoc": {
    "methods": {}
  },
  "userdoc": {
    "methods": {}
  }
}