{
  "contractName": "FarmerRole",
  "abi": [
    {
      "anonymous": false,
      "inputs": [
        {
          "indexed": true,
          "internalType": "address",
          "name": "account",
          "type": "address"
        }
      ],
      "name": "FarmerAdded",
      "type": "event"
    },
    {
      "anonymous": false,
      "inputs": [
        {
          "indexed": true,
          "internalType": "address",
          "name": "account",
          "type": "address"
        }
      ],
      "name": "FarmerRemoved",
      "type": "event"
    },
    {
      "constant": true,
      "inputs": [],
      "name": "isFarmer",
      "outputs": [
        {
          "internalType": "bool",
          "name": "",
          "type": "bool"
        }
      ],
      "payable": false,
      "stateMutability": "view",
      "type": "function"
    },
    {
      "constant": false,
      "inputs": [],
      "name": "addFarmer",
      "outputs": [],
      "payable": false,
      "stateMutability": "nonpayable",
      "type": "function"
    },
    {
      "constant": false,
      "inputs": [],
      "name": "renounceFarmer",
      "outputs": [],
      "payable": false,
      "stateMutability": "nonpayable",
      "type": "function"
    }
  ],
  "bytecode": "0x608060405234801561001057600080fd5b50610455806100206000396000f3fe608060405234801561001057600080fd5b50600436106100415760003560e01c806354db2744146100465780636a0695cc1461006857806380fc0ce414610072575b600080fd5b61004e61007c565b604051808215151515815260200191505060405180910390f35b610070610097565b005b61007a610102565b005b600061009233600061010d90919063ffffffff16565b905090565b61009f61007c565b156100a957600080fd5b6100bd3360006101eb90919063ffffffff16565b3373ffffffffffffffffffffffffffffffffffffffff167f2e0ded4123377a3c2bc9a26f1717655a129e2f20752924d42e730ec89c83dbd060405160405180910390a2565b61010b336102c6565b565b60008073ffffffffffffffffffffffffffffffffffffffff168273ffffffffffffffffffffffffffffffffffffffff161415610194576040517f08c379a00000000000000000000000000000000000000000000000000000000081526004018080602001828103825260228152602001806103ff6022913960400191505060405180910390fd5b8260000160008373ffffffffffffffffffffffffffffffffffffffff1673ffffffffffffffffffffffffffffffffffffffff16815260200190815260200160002060009054906101000a900460ff16905092915050565b6101f5828261010d565b15610268576040517f08c379a000000000000000000000000000000000000000000000000000000000815260040180806020018281038252601f8152602001807f526f6c65733a206163636f756e7420616c72656164792068617320726f6c650081525060200191505060405180910390fd5b60018260000160008373ffffffffffffffffffffffffffffffffffffffff1673ffffffffffffffffffffffffffffffffffffffff16815260200190815260200160002060006101000a81548160ff0219169083151502179055505050565b6102da81600061032090919063ffffffff16565b8073ffffffffffffffffffffffffffffffffffffffff167fa5e0f060af304ab17dd418c7927e3da3ae7868189bf387aee09ab179ccc572f260405160405180910390a250565b61032a828261010d565b61037f576040517f08c379a00000000000000000000000000000000000000000000000000000000081526004018080602001828103825260218152602001806103de6021913960400191505060405180910390fd5b60008260000160008373ffffffffffffffffffffffffffffffffffffffff1673ffffffffffffffffffffffffffffffffffffffff16815260200190815260200160002060006101000a81548160ff021916908315150217905550505056fe526f6c65733a206163636f756e7420646f6573206e6f74206861766520726f6c65526f6c65733a206163636f756e7420697320746865207a65726f2061646472657373a265627a7a72315820e1f95af43a12a48076ccf1e97c251c2d7e0ef4a6fd7f70fd4fb8398e4f945df564736f6c63430005100032",
  "source": "pragma solidity ^0.5.0;\nimport \"node_modules/@openzeppelin/contracts/access/Roles.sol\";\n        \n\ncontract FarmerRole{\n    using Roles for Roles.Role;\n\n\n    event FarmerAdded(address indexed account);\n  event FarmerRemoved(address indexed account);\n\n    Roles.Role private farmers;\n\n    modifier onlyFarmer() {\n    require(isFarmer());\n    _;\n  }\n  modifier notFarmer() {\n    require(!isFarmer());\n    _;\n  }\n\n\n  function isFarmer() public view returns (bool) {\n    return farmers.has(msg.sender);\n  }\n\n  // string memory name\n  function addFarmer() public notFarmer {\n    farmers.add(msg.sender);//name\n    emit FarmerAdded(msg.sender);\n  }\n    function renounceFarmer() public {\n    _removeFarmer(msg.sender);\n  }\n   function _removeFarmer(address account) internal {\n    farmers.remove(account);\n    emit FarmerRemoved(account);\n  }\n\n//   function displayFarmerName(address account) public returns(string memory name)\n//   {\n//     return (farmers.displayname( account));\n//   }\n}",
  "sourcePath": "/home/zero/myprojects/famers market/src/contracts/FarmerRole.sol",
  "compiler": {
    "name": "solc",
    "version": "0.5.16+commit.9c3226ce.Emscripten.clang"
  },
  "schemaVersion": "3.3.0",
  "updatedAt": "2020-12-02T12:35:36.589Z",
  "devdoc": {
    "methods": {}
  },
  "userdoc": {
    "methods": {}
  }
}