{
  "contractName": "RetailerRole",
  "abi": [
    {
      "anonymous": false,
      "inputs": [
        {
          "indexed": true,
          "internalType": "address",
          "name": "account",
          "type": "address"
        }
      ],
      "name": "RetailerAdded",
      "type": "event"
    },
    {
      "anonymous": false,
      "inputs": [
        {
          "indexed": true,
          "internalType": "address",
          "name": "account",
          "type": "address"
        }
      ],
      "name": "RetailerRemoved",
      "type": "event"
    },
    {
      "constant": true,
      "inputs": [],
      "name": "isRetailer",
      "outputs": [
        {
          "internalType": "bool",
          "name": "",
          "type": "bool"
        }
      ],
      "payable": false,
      "stateMutability": "view",
      "type": "function"
    },
    {
      "constant": false,
      "inputs": [],
      "name": "addRetailer",
      "outputs": [],
      "payable": false,
      "stateMutability": "nonpayable",
      "type": "function"
    },
    {
      "constant": false,
      "inputs": [],
      "name": "renounceRetailer",
      "outputs": [],
      "payable": false,
      "stateMutability": "nonpayable",
      "type": "function"
    }
  ],
  "bytecode": "0x608060405234801561001057600080fd5b50610455806100206000396000f3fe608060405234801561001057600080fd5b50600436106100415760003560e01c8063477ba6451461004657806397cf3c3714610068578063db0e6a2f14610072575b600080fd5b61004e61007c565b604051808215151515815260200191505060405180910390f35b610070610097565b005b61007a610102565b005b600061009233600061010d90919063ffffffff16565b905090565b61009f61007c565b156100a957600080fd5b6100bd3360006101eb90919063ffffffff16565b3373ffffffffffffffffffffffffffffffffffffffff167f71ae26cad02663e3d92efd6ec56031a80d74a20c0ab4183faa8bf262261c9baa60405160405180910390a2565b61010b336102c6565b565b60008073ffffffffffffffffffffffffffffffffffffffff168273ffffffffffffffffffffffffffffffffffffffff161415610194576040517f08c379a00000000000000000000000000000000000000000000000000000000081526004018080602001828103825260228152602001806103ff6022913960400191505060405180910390fd5b8260000160008373ffffffffffffffffffffffffffffffffffffffff1673ffffffffffffffffffffffffffffffffffffffff16815260200190815260200160002060009054906101000a900460ff16905092915050565b6101f5828261010d565b15610268576040517f08c379a000000000000000000000000000000000000000000000000000000000815260040180806020018281038252601f8152602001807f526f6c65733a206163636f756e7420616c72656164792068617320726f6c650081525060200191505060405180910390fd5b60018260000160008373ffffffffffffffffffffffffffffffffffffffff1673ffffffffffffffffffffffffffffffffffffffff16815260200190815260200160002060006101000a81548160ff0219169083151502179055505050565b6102da81600061032090919063ffffffff16565b8073ffffffffffffffffffffffffffffffffffffffff167fdb7176e79cffef81cb01767dd0447a0b24bb72ca9778d4b245581086b2a7e6db60405160405180910390a250565b61032a828261010d565b61037f576040517f08c379a00000000000000000000000000000000000000000000000000000000081526004018080602001828103825260218152602001806103de6021913960400191505060405180910390fd5b60008260000160008373ffffffffffffffffffffffffffffffffffffffff1673ffffffffffffffffffffffffffffffffffffffff16815260200190815260200160002060006101000a81548160ff021916908315150217905550505056fe526f6c65733a206163636f756e7420646f6573206e6f74206861766520726f6c65526f6c65733a206163636f756e7420697320746865207a65726f2061646472657373a265627a7a72315820af9479cbc640bf8a44efa392c400d528282b89a6c3dd64f80facfe2f7e67a8ab64736f6c63430005100032",
  "source": "pragma solidity ^0.5.0;\nimport \"node_modules/@openzeppelin/contracts/access/Roles.sol\";\n        \n\ncontract RetailerRole{\n    using Roles for Roles.Role;\n\n\n    event RetailerAdded(address indexed account);\n  event RetailerRemoved(address indexed account);\n\n    Roles.Role private Retailers;\n\n    modifier onlyRetailer() {\n    require(isRetailer());\n    _;\n  }\n  modifier notRetailer() {\n    require(!isRetailer());\n    _;\n  }\n\n\n  function isRetailer() public view returns (bool) {\n    return Retailers.has(msg.sender);\n  }\n  //string memory name\n  function addRetailer() public notRetailer {\n    Retailers.add(msg.sender);\n    emit RetailerAdded(msg.sender);\n  }\n    function renounceRetailer() public {\n    _removeRetailer(msg.sender);\n  }\n   function _removeRetailer(address account) internal {\n    Retailers.remove(account);\n    emit RetailerRemoved(account);\n  }\n}",
  "sourcePath": "/home/zero/myprojects/famers market/src/contracts/RetailerRole.sol",
  "compiler": {
    "name": "solc",
    "version": "0.5.16+commit.9c3226ce.Emscripten.clang"
  },
  "schemaVersion": "3.3.0",
  "updatedAt": "2020-12-02T12:35:36.591Z",
  "devdoc": {
    "methods": {}
  },
  "userdoc": {
    "methods": {}
  }
}