{
  "contractName": "SupplyChain",
  "abi": [
    {
      "constant": true,
      "inputs": [],
      "name": "cropc",
      "outputs": [
        {
          "internalType": "uint256",
          "name": "",
          "type": "uint256"
        }
      ],
      "payable": false,
      "stateMutability": "view",
      "type": "function"
    },
    {
      "constant": true,
      "inputs": [
        {
          "internalType": "uint256",
          "name": "",
          "type": "uint256"
        }
      ],
      "name": "crops",
      "outputs": [
        {
          "internalType": "uint256",
          "name": "upc",
          "type": "uint256"
        },
        {
          "internalType": "uint256",
          "name": "cropNumber",
          "type": "uint256"
        },
        {
          "internalType": "string",
          "name": "cropName",
          "type": "string"
        },
        {
          "internalType": "uint256",
          "name": "kg",
          "type": "uint256"
        },
        {
          "internalType": "string",
          "name": "location",
          "type": "string"
        },
        {
          "internalType": "uint256",
          "name": "price",
          "type": "uint256"
        },
        {
          "internalType": "enum SupplyChain.State",
          "name": "salestate",
          "type": "uint8"
        },
        {
          "internalType": "enum SupplyChain.CropState",
          "name": "cropstate",
          "type": "uint8"
        },
        {
          "internalType": "enum SupplyChain.Grade",
          "name": "cropgrade",
          "type": "uint8"
        },
        {
          "internalType": "address payable",
          "name": "farmOwner",
          "type": "address"
        },
        {
          "internalType": "address payable",
          "name": "newowner",
          "type": "address"
        }
      ],
      "payable": false,
      "stateMutability": "view",
      "type": "function"
    },
    {
      "constant": true,
      "inputs": [
        {
          "internalType": "uint256",
          "name": "",
          "type": "uint256"
        },
        {
          "internalType": "uint256",
          "name": "",
          "type": "uint256"
        }
      ],
      "name": "members",
      "outputs": [
        {
          "internalType": "uint256",
          "name": "cropid",
          "type": "uint256"
        },
        {
          "internalType": "address payable",
          "name": "cropowner",
          "type": "address"
        },
        {
          "internalType": "uint256",
          "name": "pricegot",
          "type": "uint256"
        }
      ],
      "payable": false,
      "stateMutability": "view",
      "type": "function"
    },
    {
      "constant": true,
      "inputs": [],
      "name": "productc",
      "outputs": [
        {
          "internalType": "uint256",
          "name": "",
          "type": "uint256"
        }
      ],
      "payable": false,
      "stateMutability": "view",
      "type": "function"
    },
    {
      "constant": true,
      "inputs": [
        {
          "internalType": "uint256",
          "name": "",
          "type": "uint256"
        }
      ],
      "name": "products",
      "outputs": [
        {
          "internalType": "uint256",
          "name": "upc",
          "type": "uint256"
        },
        {
          "internalType": "uint256",
          "name": "previousNumber",
          "type": "uint256"
        },
        {
          "internalType": "enum SupplyChain.BoughtState",
          "name": "bstate",
          "type": "uint8"
        },
        {
          "internalType": "uint256",
          "name": "productNumber",
          "type": "uint256"
        },
        {
          "internalType": "string",
          "name": "productname",
          "type": "string"
        },
        {
          "internalType": "string",
          "name": "productdescription",
          "type": "string"
        },
        {
          "internalType": "enum SupplyChain.State",
          "name": "productState",
          "type": "uint8"
        },
        {
          "internalType": "address payable",
          "name": "productowner",
          "type": "address"
        },
        {
          "internalType": "uint256",
          "name": "price",
          "type": "uint256"
        },
        {
          "internalType": "address payable",
          "name": "Distributor",
          "type": "address"
        },
        {
          "internalType": "address payable",
          "name": "Retailer",
          "type": "address"
        }
      ],
      "payable": false,
      "stateMutability": "view",
      "type": "function"
    },
    {
      "constant": true,
      "inputs": [],
      "name": "unionc",
      "outputs": [
        {
          "internalType": "uint256",
          "name": "",
          "type": "uint256"
        }
      ],
      "payable": false,
      "stateMutability": "view",
      "type": "function"
    },
    {
      "constant": true,
      "inputs": [
        {
          "internalType": "uint256",
          "name": "",
          "type": "uint256"
        }
      ],
      "name": "unions",
      "outputs": [
        {
          "internalType": "uint256",
          "name": "upc",
          "type": "uint256"
        },
        {
          "internalType": "uint256",
          "name": "uNumber",
          "type": "uint256"
        },
        {
          "internalType": "address payable",
          "name": "uowner",
          "type": "address"
        },
        {
          "internalType": "uint256",
          "name": "receivedkg",
          "type": "uint256"
        },
        {
          "internalType": "uint256",
          "name": "maxkg",
          "type": "uint256"
        },
        {
          "internalType": "string",
          "name": "cropName",
          "type": "string"
        },
        {
          "internalType": "string",
          "name": "location",
          "type": "string"
        },
        {
          "internalType": "uint256",
          "name": "amountpaid",
          "type": "uint256"
        },
        {
          "internalType": "uint256",
          "name": "presentmember",
          "type": "uint256"
        },
        {
          "internalType": "uint256",
          "name": "priceperkg",
          "type": "uint256"
        },
        {
          "internalType": "uint256",
          "name": "priceforsale",
          "type": "uint256"
        },
        {
          "internalType": "address payable",
          "name": "newowner",
          "type": "address"
        }
      ],
      "payable": false,
      "stateMutability": "view",
      "type": "function"
    },
    {
      "constant": true,
      "inputs": [
        {
          "internalType": "uint256",
          "name": "",
          "type": "uint256"
        }
      ],
      "name": "unionstate",
      "outputs": [
        {
          "internalType": "enum SupplyChain.State",
          "name": "productState",
          "type": "uint8"
        },
        {
          "internalType": "enum SupplyChain.CropState",
          "name": "cropstate",
          "type": "uint8"
        },
        {
          "internalType": "enum SupplyChain.Unionpayment",
          "name": "payment",
          "type": "uint8"
        },
        {
          "internalType": "enum SupplyChain.Memberpaidstate",
          "name": "paidstate",
          "type": "uint8"
        }
      ],
      "payable": false,
      "stateMutability": "view",
      "type": "function"
    },
    {
      "constant": true,
      "inputs": [],
      "name": "upc",
      "outputs": [
        {
          "internalType": "uint256",
          "name": "",
          "type": "uint256"
        }
      ],
      "payable": false,
      "stateMutability": "view",
      "type": "function"
    },
    {
      "constant": false,
      "inputs": [
        {
          "internalType": "string",
          "name": "_cropName",
          "type": "string"
        },
        {
          "internalType": "uint256",
          "name": "_kg",
          "type": "uint256"
        },
        {
          "internalType": "string",
          "name": "_location",
          "type": "string"
        },
        {
          "internalType": "uint256",
          "name": "_cropstate",
          "type": "uint256"
        },
        {
          "internalType": "uint256",
          "name": "_price",
          "type": "uint256"
        }
      ],
      "name": "harvestCrop",
      "outputs": [],
      "payable": false,
      "stateMutability": "nonpayable",
      "type": "function"
    },
    {
      "constant": false,
      "inputs": [
        {
          "internalType": "string",
          "name": "_cropName",
          "type": "string"
        },
        {
          "internalType": "uint256",
          "name": "_maxkg",
          "type": "uint256"
        },
        {
          "internalType": "string",
          "name": "_location",
          "type": "string"
        },
        {
          "internalType": "uint256",
          "name": "_priceperkg",
          "type": "uint256"
        },
        {
          "internalType": "uint256",
          "name": "_cropstate",
          "type": "uint256"
        },
        {
          "internalType": "uint256",
          "name": "_paymentstate",
          "type": "uint256"
        }
      ],
      "name": "Registerunion",
      "outputs": [],
      "payable": false,
      "stateMutability": "nonpayable",
      "type": "function"
    },
    {
      "constant": false,
      "inputs": [
        {
          "internalType": "string",
          "name": "_productname",
          "type": "string"
        },
        {
          "internalType": "uint256",
          "name": "_price",
          "type": "uint256"
        },
        {
          "internalType": "uint256",
          "name": "_id",
          "type": "uint256"
        },
        {
          "internalType": "string",
          "name": "_productdescription",
          "type": "string"
        },
        {
          "internalType": "uint256",
          "name": "boughtstate",
          "type": "uint256"
        }
      ],
      "name": "registerProduct",
      "outputs": [],
      "payable": false,
      "stateMutability": "nonpayable",
      "type": "function"
    },
    {
      "constant": false,
      "inputs": [
        {
          "internalType": "uint256",
          "name": "_cropid",
          "type": "uint256"
        },
        {
          "internalType": "uint256",
          "name": "_uNumber",
          "type": "uint256"
        }
      ],
      "name": "joinunion",
      "outputs": [],
      "payable": false,
      "stateMutability": "nonpayable",
      "type": "function"
    },
    {
      "constant": false,
      "inputs": [
        {
          "internalType": "uint256",
          "name": "_cropid",
          "type": "uint256"
        }
      ],
      "name": "cropPurchase",
      "outputs": [],
      "payable": true,
      "stateMutability": "payable",
      "type": "function"
    },
    {
      "constant": false,
      "inputs": [
        {
          "internalType": "uint256",
          "name": "_productid",
          "type": "uint256"
        }
      ],
      "name": "productPurchase",
      "outputs": [],
      "payable": true,
      "stateMutability": "payable",
      "type": "function"
    },
    {
      "constant": false,
      "inputs": [
        {
          "internalType": "uint256",
          "name": "_unionid",
          "type": "uint256"
        },
        {
          "internalType": "uint256",
          "name": "_price",
          "type": "uint256"
        }
      ],
      "name": "closeunion",
      "outputs": [],
      "payable": false,
      "stateMutability": "nonpayable",
      "type": "function"
    },
    {
      "constant": false,
      "inputs": [
        {
          "internalType": "uint256",
          "name": "_unionid",
          "type": "uint256"
        }
      ],
      "name": "calculatepayment",
      "outputs": [],
      "payable": false,
      "stateMutability": "nonpayable",
      "type": "function"
    },
    {
      "constant": false,
      "inputs": [
        {
          "internalType": "uint256",
          "name": "_unionid",
          "type": "uint256"
        }
      ],
      "name": "unionCroppurchase",
      "outputs": [],
      "payable": true,
      "stateMutability": "payable",
      "type": "function"
    },
    {
      "constant": false,
      "inputs": [
        {
          "internalType": "uint256",
          "name": "_unionid",
          "type": "uint256"
        }
      ],
      "name": "sendunionmoney",
      "outputs": [],
      "payable": true,
      "stateMutability": "payable",
      "type": "function"
    }
  ],
  "bytecode": "0x60806040526000805560006001556000600255600060035534801561002357600080fd5b50613da9806100336000396000f3fe6080604052600436106101145760003560e01c80636c2b68ba116100a057806397ce30bf1161006457806397ce30bf1461039d578063a20fe1c7146103c8578063ac2db09d14610410578063ae743ec41461043b578063eb4f767e1461046457610114565b80636c2b68ba146102945780636f15a9d7146102bd57806370c9f1a5146102e657806372c1f70b1461032d5780637acc0b201461035657610114565b80633df50e82116100e75780633df50e82146101bb57806342334468146101d7578063468adf3e146102005780635793967b146102295780636bc7bc491461025457610114565b806301fc20e2146101195780630e6baf8b146101585780633251d033146101745780633265a22b1461019f575b600080fd5b34801561012557600080fd5b50610140600480360361013b919081019061345c565b610480565b60405161014f9392919061388e565b60405180910390f35b610172600480360361016d9190810190613433565b6104d7565b005b34801561018057600080fd5b506101896109d0565b6040516101969190613873565b60405180910390f35b6101b960048036036101b49190810190613433565b6109d6565b005b6101d560048036036101d09190810190613433565b610bc2565b005b3480156101e357600080fd5b506101fe60048036036101f9919081019061345c565b611101565b005b34801561020c57600080fd5b506102276004803603610222919081019061338c565b611599565b005b34801561023557600080fd5b5061023e611b3a565b60405161024b9190613873565b60405180910390f35b34801561026057600080fd5b5061027b60048036036102769190810190613433565b611b40565b60405161028b949392919061376e565b60405180910390f35b3480156102a057600080fd5b506102bb60048036036102b691908101906132d3565b611ba4565b005b3480156102c957600080fd5b506102e460048036036102df9190810190613433565b611d74565b005b3480156102f257600080fd5b5061030d60048036036103089190810190613433565b611f09565b6040516103249b9a99989796959493929190613a46565b60405180910390f35b34801561033957600080fd5b50610354600480360361034f919081019061345c565b6120fa565b005b34801561036257600080fd5b5061037d60048036036103789190810190613433565b6124b8565b6040516103949b9a9998979695949392919061398d565b60405180910390f35b3480156103a957600080fd5b506103b26126bc565b6040516103bf9190613873565b60405180910390f35b3480156103d457600080fd5b506103ef60048036036103ea9190810190613433565b6126c2565b6040516104079c9b9a999897969594939291906138c5565b60405180910390f35b34801561041c57600080fd5b50610425612892565b6040516104329190613873565b60405180910390f35b34801561044757600080fd5b50610462600480360361045d919081019061322c565b612898565b005b61047e60048036036104799190810190613433565b612a5c565b005b6008602052816000526040600020602052806000526040600020600091509150508060000154908060010160009054906101000a900473ffffffffffffffffffffffffffffffffffffffff16908060020154905083565b6104df612eb8565b60046000838152602001908152602001600020604051806101600160405290816000820154815260200160018201548152602001600282018054600181600116156101000203166002900480601f0160208091040260200160405190810160405280929190818152602001828054600181600116156101000203166002900480156105ab5780601f10610580576101008083540402835291602001916105ab565b820191906000526020600020905b81548152906001019060200180831161058e57829003601f168201915b5050505050815260200160038201548152602001600482018054600181600116156101000203166002900480601f0160208091040260200160405190810160405280929190818152602001828054600181600116156101000203166002900480156106575780601f1061062c57610100808354040283529160200191610657565b820191906000526020600020905b81548152906001019060200180831161063a57829003601f168201915b50505050508152602001600582015481526020016006820160009054906101000a900460ff16600381111561068857fe5b600381111561069357fe5b81526020016006820160019054906101000a900460ff1660018111156106b557fe5b60018111156106c057fe5b81526020016006820160029054906101000a900460ff1660048111156106e257fe5b60048111156106ed57fe5b81526020016006820160039054906101000a900473ffffffffffffffffffffffffffffffffffffffff1673ffffffffffffffffffffffffffffffffffffffff1673ffffffffffffffffffffffffffffffffffffffff1681526020016007820160009054906101000a900473ffffffffffffffffffffffffffffffffffffffff1673ffffffffffffffffffffffffffffffffffffffff1673ffffffffffffffffffffffffffffffffffffffff1681525050905080610120015173ffffffffffffffffffffffffffffffffffffffff166108fc349081150290604051600060405180830381858888f193505050501580156107ea573d6000803e3d6000fd5b503381610140019073ffffffffffffffffffffffffffffffffffffffff16908173ffffffffffffffffffffffffffffffffffffffff168152505060028160c00190600381111561083657fe5b9081600381111561084357fe5b8152505080600460008481526020019081526020016000206000820151816000015560208201518160010155604082015181600201908051906020019061088b929190612f5f565b506060820151816003015560808201518160040190805190602001906108b2929190612f5f565b5060a0820151816005015560c08201518160060160006101000a81548160ff021916908360038111156108e157fe5b021790555060e08201518160060160016101000a81548160ff0219169083600181111561090a57fe5b02179055506101008201518160060160026101000a81548160ff0219169083600481111561093457fe5b02179055506101208201518160060160036101000a81548173ffffffffffffffffffffffffffffffffffffffff021916908373ffffffffffffffffffffffffffffffffffffffff1602179055506101408201518160070160006101000a81548173ffffffffffffffffffffffffffffffffffffffff021916908373ffffffffffffffffffffffffffffffffffffffff1602179055509050505050565b60015481565b600060066000838152602001908152602001600020600701541415610a30576040517f08c379a0000000000000000000000000000000000000000000000000000000008152600401610a27906137b3565b60405180910390fd5b6006600082815260200190815260200160002060020160009054906101000a900473ffffffffffffffffffffffffffffffffffffffff1673ffffffffffffffffffffffffffffffffffffffff163373ffffffffffffffffffffffffffffffffffffffff1614610a9e57600080fd5b6000600190505b60066000838152602001908152602001600020600801548111610b845760086000838152602001908152602001600020600082815260200190815260200160002060010160009054906101000a900473ffffffffffffffffffffffffffffffffffffffff1673ffffffffffffffffffffffffffffffffffffffff166108fc600860008581526020019081526020016000206000848152602001908152602001600020600201549081150290604051600060405180830381858888f19350505050158015610b76573d6000803e3d6000fd5b508080600101915050610aa5565b50600160076000600354815260200190815260200160002060000160036101000a81548160ff02191690836001811115610bba57fe5b021790555050565b610bca612fdf565b600560008381526020019081526020016000206040518061016001604052908160008201548152602001600182015481526020016002820160009054906101000a900460ff166003811115610c1b57fe5b6003811115610c2657fe5b815260200160038201548152602001600482018054600181600116156101000203166002900480601f016020809104026020016040519081016040528092919081815260200182805460018160011615610100020316600290048015610ccd5780601f10610ca257610100808354040283529160200191610ccd565b820191906000526020600020905b815481529060010190602001808311610cb057829003601f168201915b50505050508152602001600582018054600181600116156101000203166002900480601f016020809104026020016040519081016040528092919081815260200182805460018160011615610100020316600290048015610d6f5780601f10610d4457610100808354040283529160200191610d6f565b820191906000526020600020905b815481529060010190602001808311610d5257829003601f168201915b505050505081526020016006820160009054906101000a900460ff166003811115610d9657fe5b6003811115610da157fe5b81526020016006820160019054906101000a900473ffffffffffffffffffffffffffffffffffffffff1673ffffffffffffffffffffffffffffffffffffffff1673ffffffffffffffffffffffffffffffffffffffff168152602001600782015481526020016008820160009054906101000a900473ffffffffffffffffffffffffffffffffffffffff1673ffffffffffffffffffffffffffffffffffffffff1673ffffffffffffffffffffffffffffffffffffffff1681526020016009820160009054906101000a900473ffffffffffffffffffffffffffffffffffffffff1673ffffffffffffffffffffffffffffffffffffffff1673ffffffffffffffffffffffffffffffffffffffff168152505090508060e0015173ffffffffffffffffffffffffffffffffffffffff166108fc349081150290604051600060405180830381858888f19350505050158015610efd573d6000803e3d6000fd5b5060028160c001906003811115610f1057fe5b90816003811115610f1d57fe5b815250503381610140019073ffffffffffffffffffffffffffffffffffffffff16908173ffffffffffffffffffffffffffffffffffffffff16815250508060056000848152602001908152602001600020600082015181600001556020820151816001015560408201518160020160006101000a81548160ff02191690836003811115610fa657fe5b0217905550606082015181600301556080820151816004019080519060200190610fd1929190612f5f565b5060a0820151816005019080519060200190610fee929190612f5f565b5060c08201518160060160006101000a81548160ff0219169083600381111561101357fe5b021790555060e08201518160060160016101000a81548173ffffffffffffffffffffffffffffffffffffffff021916908373ffffffffffffffffffffffffffffffffffffffff16021790555061010082015181600701556101208201518160080160006101000a81548173ffffffffffffffffffffffffffffffffffffffff021916908373ffffffffffffffffffffffffffffffffffffffff1602179055506101408201518160090160006101000a81548173ffffffffffffffffffffffffffffffffffffffff021916908373ffffffffffffffffffffffffffffffffffffffff1602179055509050505050565b816006600082815260200190815260200160002060020160009054906101000a900473ffffffffffffffffffffffffffffffffffffffff1673ffffffffffffffffffffffffffffffffffffffff163373ffffffffffffffffffffffffffffffffffffffff16146111a6576040517f08c379a000000000000000000000000000000000000000000000000000000000815260040161119d90613833565b60405180910390fd5b6111ae613091565b600660008581526020019081526020016000206040518061018001604052908160008201548152602001600182015481526020016002820160009054906101000a900473ffffffffffffffffffffffffffffffffffffffff1673ffffffffffffffffffffffffffffffffffffffff1673ffffffffffffffffffffffffffffffffffffffff1681526020016003820154815260200160048201548152602001600582018054600181600116156101000203166002900480601f0160208091040260200160405190810160405280929190818152602001828054600181600116156101000203166002900480156112e45780601f106112b9576101008083540402835291602001916112e4565b820191906000526020600020905b8154815290600101906020018083116112c757829003601f168201915b50505050508152602001600682018054600181600116156101000203166002900480601f0160208091040260200160405190810160405280929190818152602001828054600181600116156101000203166002900480156113865780601f1061135b57610100808354040283529160200191611386565b820191906000526020600020905b81548152906001019060200180831161136957829003601f168201915b50505050508152602001600782015481526020016008820154815260200160098201548152602001600a8201548152602001600b820160009054906101000a900473ffffffffffffffffffffffffffffffffffffffff1673ffffffffffffffffffffffffffffffffffffffff1673ffffffffffffffffffffffffffffffffffffffff168152505090508060600151816080018181525050828161014001818152505060016007600086815260200190815260200160002060000160006101000a81548160ff0219169083600381111561145b57fe5b02179055508060066000868152602001908152602001600020600082015181600001556020820151816001015560408201518160020160006101000a81548173ffffffffffffffffffffffffffffffffffffffff021916908373ffffffffffffffffffffffffffffffffffffffff160217905550606082015181600301556080820151816004015560a08201518160050190805190602001906114ff929190612f5f565b5060c082015181600601908051906020019061151c929190612f5f565b5060e082015181600701556101008201518160080155610120820151816009015561014082015181600a015561016082015181600b0160006101000a81548173ffffffffffffffffffffffffffffffffffffffff021916908373ffffffffffffffffffffffffffffffffffffffff16021790555090505050505050565b6000808154600101919050819055600560006002600081546001019190508190558152602001908152602001600020600001819055506002546005600060025481526020019081526020016000206003018190555084600560006002548152602001908152602001600020600401908051906020019061161a92919061311e565b503360056000600254815260200190815260200160002060060160016101000a81548173ffffffffffffffffffffffffffffffffffffffff021916908373ffffffffffffffffffffffffffffffffffffffff1602179055508360056000600254815260200190815260200160002060070181905550600160056000600254815260200190815260200160002060060160006101000a81548160ff021916908360038111156116c457fe5b02179055508060038111156116d557fe5b60038111156116e057fe5b600160038111156116ed57fe5b14156118e957600154831115611738576040517f08c379a000000000000000000000000000000000000000000000000000000000815260040161172f906137d3565b60405180910390fd5b3373ffffffffffffffffffffffffffffffffffffffff166004600085815260200190815260200160002060070160009054906101000a900473ffffffffffffffffffffffffffffffffffffffff1673ffffffffffffffffffffffffffffffffffffffff16148061184e57503373ffffffffffffffffffffffffffffffffffffffff166004600085815260200190815260200160002060060160039054906101000a900473ffffffffffffffffffffffffffffffffffffffff1673ffffffffffffffffffffffffffffffffffffffff1614801561184d57506001600381111561181c57fe5b6004600085815260200190815260200160002060060160009054906101000a900460ff16600381111561184b57fe5b145b5b61188d576040517f08c379a0000000000000000000000000000000000000000000000000000000008152600401611884906137f3565b60405180910390fd5b600160056000600254815260200190815260200160002060020160006101000a81548160ff021916908360038111156118c257fe5b02179055508260056000600254815260200190815260200160002060010181905550611b06565b8060038111156118f557fe5b600381111561190057fe5b6002600381111561190d57fe5b1415611b0557600354831115611958576040517f08c379a000000000000000000000000000000000000000000000000000000000815260040161194f90613853565b60405180910390fd5b3373ffffffffffffffffffffffffffffffffffffffff1660066000858152602001908152602001600020600b0160009054906101000a900473ffffffffffffffffffffffffffffffffffffffff1673ffffffffffffffffffffffffffffffffffffffff161480611a6e57503373ffffffffffffffffffffffffffffffffffffffff166006600085815260200190815260200160002060020160009054906101000a900473ffffffffffffffffffffffffffffffffffffffff1673ffffffffffffffffffffffffffffffffffffffff16148015611a6d575060016003811115611a3c57fe5b6007600085815260200190815260200160002060000160009054906101000a900460ff166003811115611a6b57fe5b145b5b611aad576040517f08c379a0000000000000000000000000000000000000000000000000000000008152600401611aa4906137f3565b60405180910390fd5b600260056000600254815260200190815260200160002060020160006101000a81548160ff02191690836003811115611ae257fe5b021790555082600560006002548152602001908152602001600020600101819055505b5b816005600060025481526020019081526020016000206005019080519060200190611b3292919061311e565b505050505050565b60025481565b60076020528060005260406000206000915090508060000160009054906101000a900460ff16908060000160019054906101000a900460ff16908060000160029054906101000a900460ff16908060000160039054906101000a900460ff16905084565b600160035401600381905550600354600660006003548152602001908152602001600020600101819055506000808154600101919050819055600660006003548152602001908152602001600020600001819055503360066000600354815260200190815260200160002060020160006101000a81548173ffffffffffffffffffffffffffffffffffffffff021916908373ffffffffffffffffffffffffffffffffffffffff1602179055508460066000600354815260200190815260200160002060040181905550856006600060035481526020019081526020016000206005019080519060200190611c9992919061311e565b50836006600060035481526020019081526020016000206006019080519060200190611cc692919061311e565b508260066000600354815260200190815260200160002060090181905550816001811115611cf057fe5b60076000600354815260200190815260200160002060000160016101000a81548160ff02191690836001811115611d2357fe5b0217905550806001811115611d3457fe5b60076000600354815260200190815260200160002060000160026101000a81548160ff02191690836001811115611d6757fe5b0217905550505050505050565b600060066000838152602001908152602001600020600701819055506000600190505b60066000838152602001908152602001600020600801548111611f05576004600060086000858152602001908152602001600020600084815260200190815260200160002060000154815260200190815260200160002060030154600660008481526020019081526020016000206009015402600860008481526020019081526020016000206000838152602001908152602001600020600201819055506008600083815260200190815260200160002060008281526020019081526020016000206002015460066000848152602001908152602001600020600701540160066000848152602001908152602001600020600701819055506008600083815260200190815260200160002060008281526020019081526020016000206002015460046000600860008681526020019081526020016000206000858152602001908152602001600020600001548152602001908152602001600020600501819055508080600101915050611d97565b5050565b6004602052806000526040600020600091509050806000015490806001015490806002018054600181600116156101000203166002900480601f016020809104026020016040519081016040528092919081815260200182805460018160011615610100020316600290048015611fc15780601f10611f9657610100808354040283529160200191611fc1565b820191906000526020600020905b815481529060010190602001808311611fa457829003601f168201915b505050505090806003015490806004018054600181600116156101000203166002900480601f0160208091040260200160405190810160405280929190818152602001828054600181600116156101000203166002900480156120655780601f1061203a57610100808354040283529160200191612065565b820191906000526020600020905b81548152906001019060200180831161204857829003601f168201915b5050505050908060050154908060060160009054906101000a900460ff16908060060160019054906101000a900460ff16908060060160029054906101000a900460ff16908060060160039054906101000a900473ffffffffffffffffffffffffffffffffffffffff16908060070160009054906101000a900473ffffffffffffffffffffffffffffffffffffffff1690508b565b60018081111561210657fe5b6007600083815260200190815260200160002060000160029054906101000a900460ff16600181111561213557fe5b1115612176576040517f08c379a000000000000000000000000000000000000000000000000000000000815260040161216d90613813565b60405180910390fd5b6004600083815260200190815260200160002060060160039054906101000a900473ffffffffffffffffffffffffffffffffffffffff1673ffffffffffffffffffffffffffffffffffffffff163373ffffffffffffffffffffffffffffffffffffffff16146121e457600080fd5b6006600082815260200190815260200160002060050160405160200161220a9190613757565b60405160208183030381529060405280519060200120600460008481526020019081526020016000206002016040516020016122469190613757565b604051602081830303815290604052805190602001201461226657600080fd5b60046000838152602001908152602001600020600301546006600083815260200190815260200160002060030154016006600083815260200190815260200160002060040154116122b657600080fd5b60016006600083815260200190815260200160002060080154016006600083815260200190815260200160002060080181905550816008600083815260200190815260200160002060006006600085815260200190815260200160002060080154815260200190815260200160002060000181905550336008600083815260200190815260200160002060006006600085815260200190815260200160002060080154815260200190815260200160002060010160006101000a81548173ffffffffffffffffffffffffffffffffffffffff021916908373ffffffffffffffffffffffffffffffffffffffff1602179055506004600083815260200190815260200160002060030154600660008381526020019081526020016000206003015401600660008381526020019081526020016000206003018190555060036004600084815260200190815260200160002060060160006101000a81548160ff0219169083600381111561242457fe5b02179055506006600082815260200190815260200160002060020160009054906101000a900473ffffffffffffffffffffffffffffffffffffffff166004600084815260200190815260200160002060070160006101000a81548173ffffffffffffffffffffffffffffffffffffffff021916908373ffffffffffffffffffffffffffffffffffffffff1602179055505050565b60056020528060005260406000206000915090508060000154908060010154908060020160009054906101000a900460ff1690806003015490806004018054600181600116156101000203166002900480601f0160208091040260200160405190810160405280929190818152602001828054600181600116156101000203166002900480156125895780601f1061255e57610100808354040283529160200191612589565b820191906000526020600020905b81548152906001019060200180831161256c57829003601f168201915b505050505090806005018054600181600116156101000203166002900480601f0160208091040260200160405190810160405280929190818152602001828054600181600116156101000203166002900480156126275780601f106125fc57610100808354040283529160200191612627565b820191906000526020600020905b81548152906001019060200180831161260a57829003601f168201915b5050505050908060060160009054906101000a900460ff16908060060160019054906101000a900473ffffffffffffffffffffffffffffffffffffffff16908060070154908060080160009054906101000a900473ffffffffffffffffffffffffffffffffffffffff16908060090160009054906101000a900473ffffffffffffffffffffffffffffffffffffffff1690508b565b60035481565b60066020528060005260406000206000915090508060000154908060010154908060020160009054906101000a900473ffffffffffffffffffffffffffffffffffffffff1690806003015490806004015490806005018054600181600116156101000203166002900480601f0160208091040260200160405190810160405280929190818152602001828054600181600116156101000203166002900480156127ac5780601f10612781576101008083540402835291602001916127ac565b820191906000526020600020905b81548152906001019060200180831161278f57829003601f168201915b505050505090806006018054600181600116156101000203166002900480601f01602080910402602001604051908101604052809291908181526020018280546001816001161561010002031660029004801561284a5780601f1061281f5761010080835404028352916020019161284a565b820191906000526020600020905b81548152906001019060200180831161282d57829003601f168201915b50505050509080600701549080600801549080600901549080600a01549080600b0160009054906101000a900473ffffffffffffffffffffffffffffffffffffffff1690508c565b60005481565b60018054016001819055506000808154600101919050819055600460006001548152602001908152602001600020600001819055506001546004600060015481526020019081526020016000206001018190555084600460006001548152602001908152602001600020600201908051906020019061291892919061311e565b508360046000600154815260200190815260200160002060030181905550806004600060015481526020019081526020016000206005018190555082600460006001548152602001908152602001600020600401908051906020019061297f92919061311e565b5081600181111561298c57fe5b60046000600154815260200190815260200160002060060160016101000a81548160ff021916908360018111156129bf57fe5b0217905550600160046000600154815260200190815260200160002060060160006101000a81548160ff021916908360038111156129f957fe5b02179055503360046000600154815260200190815260200160002060060160036101000a81548173ffffffffffffffffffffffffffffffffffffffff021916908373ffffffffffffffffffffffffffffffffffffffff1602179055505050505050565b612a64613091565b600660008381526020019081526020016000206040518061018001604052908160008201548152602001600182015481526020016002820160009054906101000a900473ffffffffffffffffffffffffffffffffffffffff1673ffffffffffffffffffffffffffffffffffffffff1673ffffffffffffffffffffffffffffffffffffffff1681526020016003820154815260200160048201548152602001600582018054600181600116156101000203166002900480601f016020809104026020016040519081016040528092919081815260200182805460018160011615610100020316600290048015612b9a5780601f10612b6f57610100808354040283529160200191612b9a565b820191906000526020600020905b815481529060010190602001808311612b7d57829003601f168201915b50505050508152602001600682018054600181600116156101000203166002900480601f016020809104026020016040519081016040528092919081815260200182805460018160011615610100020316600290048015612c3c5780601f10612c1157610100808354040283529160200191612c3c565b820191906000526020600020905b815481529060010190602001808311612c1f57829003601f168201915b50505050508152602001600782015481526020016008820154815260200160098201548152602001600a8201548152602001600b820160009054906101000a900473ffffffffffffffffffffffffffffffffffffffff1673ffffffffffffffffffffffffffffffffffffffff1673ffffffffffffffffffffffffffffffffffffffff16815250509050806040015173ffffffffffffffffffffffffffffffffffffffff166108fc349081150290604051600060405180830381858888f19350505050158015612d0f573d6000803e3d6000fd5b5060026007600084815260200190815260200160002060000160006101000a81548160ff02191690836003811115612d4357fe5b02179055503381610160019073ffffffffffffffffffffffffffffffffffffffff16908173ffffffffffffffffffffffffffffffffffffffff16815250508060066000848152602001908152602001600020600082015181600001556020820151816001015560408201518160020160006101000a81548173ffffffffffffffffffffffffffffffffffffffff021916908373ffffffffffffffffffffffffffffffffffffffff160217905550606082015181600301556080820151816004015560a0820151816005019080519060200190612e20929190612f5f565b5060c0820151816006019080519060200190612e3d929190612f5f565b5060e082015181600701556101008201518160080155610120820151816009015561014082015181600a015561016082015181600b0160006101000a81548173ffffffffffffffffffffffffffffffffffffffff021916908373ffffffffffffffffffffffffffffffffffffffff1602179055509050505050565b60405180610160016040528060008152602001600081526020016060815260200160008152602001606081526020016000815260200160006003811115612efb57fe5b815260200160006001811115612f0d57fe5b815260200160006004811115612f1f57fe5b8152602001600073ffffffffffffffffffffffffffffffffffffffff168152602001600073ffffffffffffffffffffffffffffffffffffffff1681525090565b828054600181600116156101000203166002900490600052602060002090601f016020900481019282601f10612fa057805160ff1916838001178555612fce565b82800160010185558215612fce579182015b82811115612fcd578251825591602001919060010190612fb2565b5b509050612fdb919061319e565b5090565b60405180610160016040528060008152602001600081526020016000600381111561300657fe5b81526020016000815260200160608152602001606081526020016000600381111561302d57fe5b8152602001600073ffffffffffffffffffffffffffffffffffffffff16815260200160008152602001600073ffffffffffffffffffffffffffffffffffffffff168152602001600073ffffffffffffffffffffffffffffffffffffffff1681525090565b6040518061018001604052806000815260200160008152602001600073ffffffffffffffffffffffffffffffffffffffff1681526020016000815260200160008152602001606081526020016060815260200160008152602001600081526020016000815260200160008152602001600073ffffffffffffffffffffffffffffffffffffffff1681525090565b828054600181600116156101000203166002900490600052602060002090601f016020900481019282601f1061315f57805160ff191683800117855561318d565b8280016001018555821561318d579182015b8281111561318c578251825591602001919060010190613171565b5b50905061319a919061319e565b5090565b6131c091905b808211156131bc5760008160009055506001016131a4565b5090565b90565b600082601f8301126131d457600080fd5b81356131e76131e282613b2c565b613aff565b9150808252602083016020830185838301111561320357600080fd5b61320e838284613cae565b50505092915050565b60008135905061322681613d4f565b92915050565b600080600080600060a0868803121561324457600080fd5b600086013567ffffffffffffffff81111561325e57600080fd5b61326a888289016131c3565b955050602061327b88828901613217565b945050604086013567ffffffffffffffff81111561329857600080fd5b6132a4888289016131c3565b93505060606132b588828901613217565b92505060806132c688828901613217565b9150509295509295909350565b60008060008060008060c087890312156132ec57600080fd5b600087013567ffffffffffffffff81111561330657600080fd5b61331289828a016131c3565b965050602061332389828a01613217565b955050604087013567ffffffffffffffff81111561334057600080fd5b61334c89828a016131c3565b945050606061335d89828a01613217565b935050608061336e89828a01613217565b92505060a061337f89828a01613217565b9150509295509295509295565b600080600080600060a086880312156133a457600080fd5b600086013567ffffffffffffffff8111156133be57600080fd5b6133ca888289016131c3565b95505060206133db88828901613217565b94505060406133ec88828901613217565b935050606086013567ffffffffffffffff81111561340957600080fd5b613415888289016131c3565b925050608061342688828901613217565b9150509295509295909350565b60006020828403121561344557600080fd5b600061345384828501613217565b91505092915050565b6000806040838503121561346f57600080fd5b600061347d85828601613217565b925050602061348e85828601613217565b9150509250929050565b6134a181613b94565b82525050565b6134b081613c42565b82525050565b6134bf81613c54565b82525050565b6134ce81613c66565b82525050565b6134dd81613c78565b82525050565b6134ec81613c8a565b82525050565b6134fb81613c9c565b82525050565b600061350c82613b6d565b6135168185613b78565b9350613526818560208601613cbd565b61352f81613cf0565b840191505092915050565b600081546001811660008114613557576001811461357c576135c0565b607f60028304166135688187613b89565b955060ff19831686528086019350506135c0565b6002820461358a8187613b89565b955061359585613b58565b60005b828110156135b757815481890152600182019150602081019050613598565b82880195505050505b505092915050565b60006135d5601483613b78565b91507f616d6f756e742063616e2774206265207a65726f0000000000000000000000006000830152602082019050919050565b6000613615600f83613b78565b91507f696e76616c69642063726f7020696400000000000000000000000000000000006000830152602082019050919050565b6000613655601383613b78565b91507f6f6e6c79206f776e65722063616e2063616c6c000000000000000000000000006000830152602082019050919050565b6000613695601e83613b78565b91507f756e696f6e206973206e6f206c6f6e6765722066756e6374696f6e696e6700006000830152602082019050919050565b60006136d5601983613b78565b91507f6f6e6c7920756e696f6e206f776e65722063616e2063616c6c000000000000006000830152602082019050919050565b6000613715601083613b78565b91507f696e76616c696420756e696f6e206964000000000000000000000000000000006000830152602082019050919050565b61375181613c38565b82525050565b6000613763828461353a565b915081905092915050565b600060808201905061378360008301876134e3565b61379060208301866134b6565b61379d60408301856134f2565b6137aa60608301846134d4565b95945050505050565b600060208201905081810360008301526137cc816135c8565b9050919050565b600060208201905081810360008301526137ec81613608565b9050919050565b6000602082019050818103600083015261380c81613648565b9050919050565b6000602082019050818103600083015261382c81613688565b9050919050565b6000602082019050818103600083015261384c816136c8565b9050919050565b6000602082019050818103600083015261386c81613708565b9050919050565b60006020820190506138886000830184613748565b92915050565b60006060820190506138a36000830186613748565b6138b06020830185613498565b6138bd6040830184613748565b949350505050565b6000610180820190506138db600083018f613748565b6138e8602083018e613748565b6138f5604083018d613498565b613902606083018c613748565b61390f608083018b613748565b81810360a0830152613921818a613501565b905081810360c08301526139358189613501565b905061394460e0830188613748565b613952610100830187613748565b613960610120830186613748565b61396e610140830185613748565b61397c610160830184613498565b9d9c50505050505050505050505050565b6000610160820190506139a3600083018e613748565b6139b0602083018d613748565b6139bd604083018c6134a7565b6139ca606083018b613748565b81810360808301526139dc818a613501565b905081810360a08301526139f08189613501565b90506139ff60c08301886134e3565b613a0c60e0830187613498565b613a1a610100830186613748565b613a28610120830185613498565b613a36610140830184613498565b9c9b505050505050505050505050565b600061016082019050613a5c600083018e613748565b613a69602083018d613748565b8181036040830152613a7b818c613501565b9050613a8a606083018b613748565b8181036080830152613a9c818a613501565b9050613aab60a0830189613748565b613ab860c08301886134e3565b613ac560e08301876134b6565b613ad36101008301866134c5565b613ae1610120830185613498565b613aef610140830184613498565b9c9b505050505050505050505050565b6000604051905081810181811067ffffffffffffffff82111715613b2257600080fd5b8060405250919050565b600067ffffffffffffffff821115613b4357600080fd5b601f19601f8301169050602081019050919050565b60008190508160005260206000209050919050565b600081519050919050565b600082825260208201905092915050565b600081905092915050565b6000613b9f82613c18565b9050919050565b6000819050613bb482613d01565b919050565b6000819050613bc782613d0e565b919050565b6000819050613bda82613d1b565b919050565b6000819050613bed82613d28565b919050565b6000819050613c0082613d35565b919050565b6000819050613c1382613d42565b919050565b600073ffffffffffffffffffffffffffffffffffffffff82169050919050565b6000819050919050565b6000613c4d82613ba6565b9050919050565b6000613c5f82613bb9565b9050919050565b6000613c7182613bcc565b9050919050565b6000613c8382613bdf565b9050919050565b6000613c9582613bf2565b9050919050565b6000613ca782613c05565b9050919050565b82818337600083830152505050565b60005b83811015613cdb578082015181840152602081019050613cc0565b83811115613cea576000848401525b50505050565b6000601f19601f8301169050919050565b60048110613d0b57fe5b50565b60028110613d1857fe5b50565b60058110613d2557fe5b50565b60028110613d3257fe5b50565b60048110613d3f57fe5b50565b60028110613d4c57fe5b50565b613d5881613c38565b8114613d6357600080fd5b5056fea365627a7a72315820c6a32c74245d815a608840c72cb5c70d430744ef25a7f29526d02ecb1f9e76566c6578706572696d656e74616cf564736f6c63430005100040",
  "source": "pragma solidity ^0.5.0;\npragma experimental ABIEncoderV2;\n// import \"./FarmerRole.sol\";\n// import \"./ConsumerRole.sol\";\n// import \"./RetailerRole.sol\";\n// import \"./DistributorRole.sol\";\n\n//is FarmerRole,ConsumerRole,RetailerRole, DistributorRole\n\ncontract SupplyChain  {\n\n  // Define a variable called 'sku' for Stock Keeping Unit (SKU)\n\n  // Define a variable called 'upc' for Universal Product Code (UPC)\n  uint  public upc=0;\n\n  uint public cropc=0;\n\n  uint public productc=0;\n\n  uint public unionc=0;\n\n\n\n  mapping (uint => Crop) public crops;\n\n  mapping (uint => Product) public products;\n\n  mapping (uint => Union) public unions;\n\n\n// Define enum 'State' with the following values:\n  enum State\n  {\n    NotUpForSale ,\n    ForSale,\n    Sold,\n    soldToUnion\n  \n  }\n\n    enum CropState {\n        Harvested,  // 0\n        Processed  // 1\n    }\n\n    enum Unionpayment {\n      lending,\n      Crowdsourcing\n    }\n    enum Memberpaidstate {\n        notsent,\n          sent\n    }\n\n// this.boughtstate[this.bstate.value]\n  enum Grade\n  {\n    A,\n    B,\n    C,\n    D,\n    E\n  }\n  enum BoughtState\n  {\n    None,\n    Crop,\n    Union,\n    Others\n  }\n\n\n    struct Crop {\n        uint upc;  // Universal Product Code (UPC)\n        uint cropNumber;\n        string cropName;\n        uint kg;\n        string location;\n        uint price;\n        State  salestate;\n        CropState cropstate;\n        Grade cropgrade;\n        address payable farmOwner;\n        address payable newowner;\n        // address payable Distributor;\n  \n  }\n\n  struct Union {\n    uint upc;  // Universal Product Code (UPC)\n    uint uNumber;\n    address payable uowner;\n    uint receivedkg;\n    uint maxkg;\n    string cropName;\n    string location;\n    uint amountpaid;\n    uint presentmember;\n    uint priceperkg;\n    uint priceforsale;\n    address payable newowner;\n\n  }\n\n  struct UnionState {\n    State productState;\n   // Grade minReqgrade;\n    CropState cropstate;\n    Unionpayment payment;\n    Memberpaidstate paidstate;\n\n  }\n\n  struct Unionmembers {\n    uint cropid;\n    address payable cropowner;\n    uint pricegot;\n  }\n  mapping (uint=>UnionState) public unionstate;\n  mapping ( uint=>mapping(uint=>Unionmembers))  public members;\n\n  // function xxx() public {\n  //  unionsinfo[1].cropmember[1][0] = 6;\n  //  unionsinfo[1].cropmember[1][1] = 16;\n  // }\n\n\n\n  struct Product {\n      uint upc;  // Universal Product Code (UPC)\n      uint previousNumber;\n      BoughtState bstate;\n      uint productNumber;\n      string productname;\n      string productdescription;\n      State productState;\n      address payable productowner;\n      uint price;\n      address payable Distributor;\n      address payable Retailer;\n\n  }\n\n  \n  // Define a modifier that checks if the paid amount is sufficient to cover the price\n  // modifier paidEnough(uint _price) {\n  //   require(msg.value >= _price);\n  //   _;\n  // }\n\n  // // Define a modifier that checks if an item.state of a upc is Harvested\n  // modifier harvestedcrops(uint _upc)\n  //  {\n  //   require(crops[_upc].farmstate == State.Harvested);\n  //   _;\n  // }\n\n  // // Define a modifier that checks if an item.state of a upc is Processed\n  // modifier processedcrops(uint _upc) {\n  //   require(crops[_upc].farmstate == State.Processed);\n  //   _;\n  // }\n\n  // modifier soldcrops(uint _upc) {\n  //   require(crops[_upc].farmstate == State.Sold);\n  //   _;\n  // }\n  \n\n\n // Define a modifier that checks if an item.state of a upc is Packed\n  // modifier packedproducts(uint _upc) {\n  //   require(products[_upc].productState == State.Packed);\n  //   _;\n  // }\n\n  // // Define a modifier that checks if an item.state of a upc is ForSale\n  // modifier forSaleproducts(uint _upc) {\n  //   require(products[_upc].productState == State.ForSale);\n  //   _;\n  // }\n\n  // // Define a modifier that checks if an item.state of a upc is Sold\n  \n  // modifier soldproducts(uint _upc) {\n  //   require(products[_upc].productState == State.Sold);\n  //   _;\n  // }\n  \n  // // Define a modifier that checks if an item.state of a upc is Shipped\n  // modifier shippedproducts(uint _upc) {\n  //   require(products[_upc].productState == State.Shipped);\n  //   _;\n  // }\n\n  // // Define a modifier that checks if an item.state of a upc is Received\n  // modifier received(uint _upc) {\n  //   require(products[_upc].productState == State.Received);\n  //   _;\n  // }\n\n  // // Define a modifier that checks if an item.state of a upc is Purchased\n  // modifier purchasedproducts(uint _upc) {\n  //   require(products[_upc].productState == State.Purchased);\n  //   _;\n  // }\n\n\n    function harvestCrop(\n        string memory _cropName,\n        uint _kg,\n        string memory _location,\n        uint _cropstate,\n        uint _price) public\n    {\n        cropc = cropc + 1;\n        crops[cropc].upc = ++upc;\n        crops[cropc].cropNumber = cropc;\n        crops[cropc].cropName = _cropName;\n        crops[cropc].kg = _kg;\n        crops[cropc].price = _price;\n        crops[cropc].location = _location;\n        crops[cropc].cropstate = CropState(_cropstate);\n        crops[cropc].salestate = State.ForSale;\n        crops[cropc].farmOwner = msg.sender;\n\n    }\n\n\n\n    function Registerunion(\n        string memory _cropName,\n        uint _maxkg,\n        string memory _location,\n        uint _priceperkg,\n        uint _cropstate,\n        uint _paymentstate\n    ) public\n    {\n        unionc = unionc+1;\n        unions[unionc].uNumber = unionc;\n        unions[unionc].upc = ++upc;\n        unions[unionc].uowner = msg.sender;\n        unions[unionc].maxkg = _maxkg;\n        unions[unionc].cropName = _cropName;\n        unions[unionc].location = _location;\n        unions[unionc].priceperkg = _priceperkg;\n        unionstate[unionc].cropstate = CropState(_cropstate);\n        unionstate[unionc].payment = Unionpayment(_paymentstate);\n    }\n\n\n\n//     function displayunion(\n//         uint _unionid\n//     ) public returns ( uint upc,\n//     uint uNumber,\n//     address payable uowner,\n//       string memory _cropName,\n//         uint _maxkg,\n// string memory _location )\n//     {\n      \n//         uNumber = unions[ _unionid].uNumber;\n//         upc = unions[ _unionid].upc;\n//         uowner = unions[ _unionid].uowner;\n//         _maxkg = unions[ _unionid].maxkg;\n//         _cropName = unions[ _unionid].cropName;\n//         _location = unions[ _unionid].location ;\n       \n//     }\n\n\n\n    \n\n    function registerProduct(string memory _productname,\n      uint _price, uint _id, string memory _productdescription, uint boughtstate ) public\n    {\n     \n      products[++productc].upc = ++upc;\n      products[productc].productNumber = productc;\n      products[productc].productname = _productname;\n      products[productc].productowner = msg.sender;\n      products[productc].price = _price;\n      products[productc].productState = State.ForSale;\n      if(BoughtState.Crop==BoughtState(boughtstate))\n      {\n        require(_id<=cropc,\"invalid crop id\");\n        require(crops[_id].newowner==msg.sender || (crops[_id].farmOwner== msg.sender && crops[_id].salestate== State.ForSale ),\"only owner can call\");\n        products[productc].bstate = BoughtState.Crop;\n        products[productc].previousNumber = _id;\n      }\n      else if(BoughtState.Union==BoughtState(boughtstate))\n      {\n        require(_id<=unionc,\"invalid union id\");\n        require(unions[_id].newowner == msg.sender || (unions[_id].uowner == msg.sender && unionstate[_id].productState == State.ForSale ),\"only owner can call\");\n        products[productc].bstate = BoughtState.Union;\n        products[productc].previousNumber = _id;\n      }\n     \n      products[productc].productdescription = _productdescription;\n\n    }\n\n\n    function joinunion(uint _cropid, uint _uNumber) public\n    {\n      require(unionstate[_uNumber].payment <= Unionpayment.Crowdsourcing, \"union is no longer functioning\");\n       require(msg.sender==crops[_cropid].farmOwner);\n       require(keccak256(abi.encodePacked(crops[_cropid].cropName)) == keccak256(abi.encodePacked(unions[_uNumber].cropName)));\n       require(unions[_uNumber].maxkg>(unions[_uNumber].receivedkg+crops[_cropid].kg));\n      unions[_uNumber].presentmember = unions[_uNumber].presentmember + 1;\n      members[_uNumber][unions[_uNumber].presentmember].cropid = _cropid;\n      members[_uNumber][unions[_uNumber].presentmember].cropowner = msg.sender;\n      unions[_uNumber].receivedkg = unions[_uNumber].receivedkg+crops[_cropid].kg;\n      crops[_cropid].salestate = State.soldToUnion;\n      crops[_cropid].newowner = unions[_uNumber].uowner;\n\n\n    }\n\n    // function DistributorBuy(uint _productid) public payable\n    // {\n    //   require(msg.value >= products[_productid].price);\n    // // products[_productid].productState=State.Sold;\n    //   address payable _seller = products[_productid].productowner;\n    //   products[_productid].Distributor = msg.sender;\n    //   address(_seller).transfer(msg.value);\n    // }\n\n    // function RetailerBuy(uint _productid) public payable\n    // {\n    //   require(msg.value >= products[_productid].price);\n    //  // products[_productid].productState=State.Sold;\n    //   address payable _seller = products[_productid].productowner;\n    //   products[_productid].Retailer= msg.sender;\n    //   address(_seller).transfer(msg.value);\n    // }\n\n    // function ConsumerBuy(uint _productid) public payable\n    // {\n    //   require(msg.value >= products[_productid].price);\n    //   products[_productid].productState = State.Sold;\n    //   address payable _seller = products[_productid].productowner;\n    //   // products[_productid].Retailer= msg.sender;\n    //   address(_seller).transfer(msg.value);\n    // }\n\n    function cropPurchase(uint _cropid) public payable {\n      \n      Crop memory crop = crops[_cropid];\n      address(crop.farmOwner).transfer(msg.value);\n      crop.newowner = msg.sender;\n      crop.salestate = State.Sold;\n\n      crops[_cropid] = crop;\n\n    }\n\n    function productPurchase(uint _productid) public payable {\n      Product memory product = products[_productid];\n\n      address(product.productowner).transfer(msg.value);\n      product.productState = State.Sold;\n      product.Retailer = msg.sender;\n\n\n      products[_productid] = product;\n\n\n\n    }\n\n    modifier unionowner(uint _unionid) {\n\n      require(msg.sender==unions[_unionid].uowner,\"only union owner can call\");\n      _;\n\n    }\n\n    function closeunion(uint _unionid ,uint _price) public\n    unionowner(_unionid){\n      Union memory union = unions[_unionid];\n      union.maxkg = union.receivedkg;\n      union.priceforsale = _price;\n      unionstate[_unionid].productState = State.ForSale;\n      unions[_unionid] = union;\n      //  if(unionstate[unionc].payment == Unionpayment.lending)\n      //  {\n      //    calculatepayment(_unionid);\n      //    unionstate[unionc].paidstate =  Unionpayment.notsent;\n\n      //  }\n      //  else\n      //  {\n      //    calculatepayment(_unionid);\n      //    unionstate[unionc].payment =  Unionpayment.notsent;\n      //  }\n\n\n    }\n    function calculatepayment(uint _unionid) public\n    {\n      unions[_unionid].amountpaid = 0;\n      for (uint i = 1;i<=unions[_unionid].presentmember;i++)\n      {\n        members[_unionid][i].pricegot = unions[_unionid].priceperkg*crops[members[_unionid][i].cropid].kg;\n        unions[_unionid].amountpaid = unions[_unionid].amountpaid + members[_unionid][i].pricegot;\n        crops[members[_unionid][i].cropid].price = members[_unionid][i].pricegot;\n      }\n    }\n\n\n\n    function unionCroppurchase(uint _unionid) public payable {\n      Union memory union = unions[_unionid];\n\n      address(union.uowner).transfer(msg.value);\n      unionstate[_unionid].productState = State.Sold;\n      union.newowner = msg.sender;\n      unions[_unionid] = union;\n\n    }\n\n    function sendunionmoney(uint _unionid) public payable\n    {\n      require(unions[_unionid].amountpaid!=0,\"amount can't be zero\");\n      require(msg.sender==unions[_unionid].uowner);\n      for (uint i = 1;i<=unions[_unionid].presentmember;i++)\n      {\n       \n        address(members[_unionid][i].cropowner).transfer(members[_unionid][i].pricegot);\n      }\n\n      unionstate[unionc].paidstate = Memberpaidstate.sent;\n    }\n    \n    \n\n  \n\n\n\n}",
  "sourcePath": "/home/zero/myprojects/farmers-market/src/contracts/SupplyChain.sol",
  "compiler": {
    "name": "solc",
    "version": "0.5.16+commit.9c3226ce.Emscripten.clang"
  },
  "schemaVersion": "3.3.0",
  "updatedAt": "2020-12-02T08:17:50.513Z",
  "devdoc": {
    "methods": {}
  },
  "userdoc": {
    "methods": {}
  }
}